{
  "_format": "hh-sol-artifact-1",
  "contractName": "Fuota",
  "sourceName": "contracts/Fuota.sol",
  "abi": [
    {
      "inputs": [],
      "stateMutability": "nonpayable",
      "type": "constructor"
    },
    {
      "anonymous": false,
      "inputs": [
        {
          "indexed": true,
          "internalType": "address",
          "name": "from",
          "type": "address"
        },
        {
          "indexed": false,
          "internalType": "string",
          "name": "cid",
          "type": "string"
        },
        {
          "indexed": false,
          "internalType": "string",
          "name": "version",
          "type": "string"
        }
      ],
      "name": "firmwareLog",
      "type": "event"
    },
    {
      "inputs": [
        {
          "internalType": "address",
          "name": "_newAdmin",
          "type": "address"
        }
      ],
      "name": "addAdmin",
      "outputs": [],
      "stateMutability": "nonpayable",
      "type": "function"
    },
    {
      "inputs": [],
      "name": "getAllAdmin",
      "outputs": [
        {
          "internalType": "address[]",
          "name": "",
          "type": "address[]"
        }
      ],
      "stateMutability": "view",
      "type": "function"
    },
    {
      "inputs": [],
      "name": "getAllRegisteredDevice",
      "outputs": [
        {
          "components": [
            {
              "internalType": "address",
              "name": "deviceIdentifier",
              "type": "address"
            },
            {
              "internalType": "address",
              "name": "deviceOwner",
              "type": "address"
            },
            {
              "internalType": "uint256",
              "name": "timestamp",
              "type": "uint256"
            },
            {
              "internalType": "bool",
              "name": "isRegistered",
              "type": "bool"
            }
          ],
          "internalType": "struct Fuota.DeviceStruct[]",
          "name": "",
          "type": "tuple[]"
        }
      ],
      "stateMutability": "view",
      "type": "function"
    },
    {
      "inputs": [],
      "name": "getAllRegisteredFirmware",
      "outputs": [
        {
          "components": [
            {
              "internalType": "address",
              "name": "publisher",
              "type": "address"
            },
            {
              "internalType": "string",
              "name": "version",
              "type": "string"
            },
            {
              "internalType": "string",
              "name": "cid",
              "type": "string"
            },
            {
              "internalType": "uint256",
              "name": "timestamp",
              "type": "uint256"
            },
            {
              "internalType": "bool",
              "name": "isRegistered",
              "type": "bool"
            }
          ],
          "internalType": "struct Fuota.FirmwareStruct[]",
          "name": "",
          "type": "tuple[]"
        }
      ],
      "stateMutability": "view",
      "type": "function"
    },
    {
      "inputs": [
        {
          "internalType": "address",
          "name": "_key",
          "type": "address"
        }
      ],
      "name": "getSpecificRegisteredDevice",
      "outputs": [
        {
          "internalType": "bool",
          "name": "",
          "type": "bool"
        }
      ],
      "stateMutability": "view",
      "type": "function"
    },
    {
      "inputs": [
        {
          "internalType": "string",
          "name": "_key",
          "type": "string"
        }
      ],
      "name": "getSpecificRegisteredFirmware",
      "outputs": [
        {
          "internalType": "bool",
          "name": "",
          "type": "bool"
        }
      ],
      "stateMutability": "view",
      "type": "function"
    },
    {
      "inputs": [
        {
          "internalType": "address",
          "name": "_adminAddr",
          "type": "address"
        }
      ],
      "name": "isAdmin",
      "outputs": [
        {
          "internalType": "bool",
          "name": "",
          "type": "bool"
        }
      ],
      "stateMutability": "view",
      "type": "function"
    },
    {
      "inputs": [
        {
          "internalType": "address",
          "name": "_deviceIdentifier",
          "type": "address"
        }
      ],
      "name": "registerDevice",
      "outputs": [],
      "stateMutability": "nonpayable",
      "type": "function"
    },
    {
      "inputs": [
        {
          "internalType": "string",
          "name": "_cid",
          "type": "string"
        },
        {
          "internalType": "string",
          "name": "_version",
          "type": "string"
        }
      ],
      "name": "registerFirmware",
      "outputs": [],
      "stateMutability": "nonpayable",
      "type": "function"
    },
    {
      "inputs": [
        {
          "internalType": "string",
          "name": "_cid",
          "type": "string"
        }
      ],
      "name": "verificationFromDevice",
      "outputs": [
        {
          "internalType": "bool",
          "name": "",
          "type": "bool"
        },
        {
          "internalType": "address",
          "name": "",
          "type": "address"
        },
        {
          "internalType": "string",
          "name": "",
          "type": "string"
        }
      ],
      "stateMutability": "view",
      "type": "function"
    }
  ],
  "bytecode": "0x608060405234801561001057600080fd5b50336000806101000a81548173ffffffffffffffffffffffffffffffffffffffff021916908373ffffffffffffffffffffffffffffffffffffffff1602179055506115b0806100606000396000f3fe608060405234801561001057600080fd5b506004361061009e5760003560e01c806395dda9731161006657806395dda973146101595780639b80e43414610189578063bad11e36146101a7578063de523875146101c5578063df433131146101f75761009e565b806324d7806c146100a357806331a36424146100d35780635fbdd83c146100f15780636dc7b9a514610121578063704802751461013d575b600080fd5b6100bd60048036038101906100b89190610d4a565b610213565b6040516100ca91906111f5565b60405180910390f35b6100db610269565b6040516100e8919061118f565b60405180910390f35b61010b60048036038101906101069190610d4a565b6102f7565b60405161011891906111f5565b60405180910390f35b61013b60048036038101906101369190610d4a565b61034d565b005b61015760048036038101906101529190610d4a565b6104e3565b005b610173600480360381019061016e9190610d73565b61062f565b60405161018091906111f5565b60405180910390f35b610191610664565b60405161019e91906111b1565b60405180910390f35b6101af610794565b6040516101bc91906111d3565b60405180910390f35b6101df60048036038101906101da9190610d73565b610992565b6040516101ee93929190611210565b60405180910390f35b610211600480360381019061020c9190610db4565b610a81565b005b6000600460008373ffffffffffffffffffffffffffffffffffffffff1673ffffffffffffffffffffffffffffffffffffffff16815260200190815260200160002060009054906101000a900460ff169050919050565b606060018054806020026020016040519081016040528092919081815260200182805480156102ed57602002820191906000526020600020905b8160009054906101000a900473ffffffffffffffffffffffffffffffffffffffff1673ffffffffffffffffffffffffffffffffffffffff16815260200190600101908083116102a3575b5050505050905090565b6000600660008373ffffffffffffffffffffffffffffffffffffffff1673ffffffffffffffffffffffffffffffffffffffff16815260200190815260200160002060009054906101000a900460ff169050919050565b600060405180608001604052808373ffffffffffffffffffffffffffffffffffffffff1681526020013373ffffffffffffffffffffffffffffffffffffffff168152602001428152602001600115158152509050600381908060018154018082558091505060019003906000526020600020906004020160009091909190915060008201518160000160006101000a81548173ffffffffffffffffffffffffffffffffffffffff021916908373ffffffffffffffffffffffffffffffffffffffff16021790555060208201518160010160006101000a81548173ffffffffffffffffffffffffffffffffffffffff021916908373ffffffffffffffffffffffffffffffffffffffff1602179055506040820151816002015560608201518160030160006101000a81548160ff02191690831515021790555050506001600660008473ffffffffffffffffffffffffffffffffffffffff1673ffffffffffffffffffffffffffffffffffffffff16815260200190815260200160002060006101000a81548160ff0219169083151502179055505050565b60008054906101000a900473ffffffffffffffffffffffffffffffffffffffff1673ffffffffffffffffffffffffffffffffffffffff163373ffffffffffffffffffffffffffffffffffffffff1614610571576040517f08c379a000000000000000000000000000000000000000000000000000000000815260040161056890611285565b60405180910390fd5b6001819080600181540180825580915050600190039060005260206000200160009091909190916101000a81548173ffffffffffffffffffffffffffffffffffffffff021916908373ffffffffffffffffffffffffffffffffffffffff1602179055506001600460008373ffffffffffffffffffffffffffffffffffffffff1673ffffffffffffffffffffffffffffffffffffffff16815260200190815260200160002060006101000a81548160ff02191690831515021790555050565b60006005826040516106419190611178565b908152602001604051809103902060009054906101000a900460ff169050919050565b60606003805480602002602001604051908101604052809291908181526020016000905b8282101561078b57838290600052602060002090600402016040518060800160405290816000820160009054906101000a900473ffffffffffffffffffffffffffffffffffffffff1673ffffffffffffffffffffffffffffffffffffffff1673ffffffffffffffffffffffffffffffffffffffff1681526020016001820160009054906101000a900473ffffffffffffffffffffffffffffffffffffffff1673ffffffffffffffffffffffffffffffffffffffff1673ffffffffffffffffffffffffffffffffffffffff168152602001600282015481526020016003820160009054906101000a900460ff16151515158152505081526020019060010190610688565b50505050905090565b60606002805480602002602001604051908101604052809291908181526020016000905b8282101561098957838290600052602060002090600502016040518060a00160405290816000820160009054906101000a900473ffffffffffffffffffffffffffffffffffffffff1673ffffffffffffffffffffffffffffffffffffffff1673ffffffffffffffffffffffffffffffffffffffff16815260200160018201805461084190611468565b80601f016020809104026020016040519081016040528092919081815260200182805461086d90611468565b80156108ba5780601f1061088f576101008083540402835291602001916108ba565b820191906000526020600020905b81548152906001019060200180831161089d57829003601f168201915b505050505081526020016002820180546108d390611468565b80601f01602080910402602001604051908101604052809291908181526020018280546108ff90611468565b801561094c5780601f106109215761010080835404028352916020019161094c565b820191906000526020600020905b81548152906001019060200180831161092f57829003601f168201915b50505050508152602001600382015481526020016004820160009054906101000a900460ff161515151581525050815260200190600101906107b8565b50505050905090565b60008060606000600660003373ffffffffffffffffffffffffffffffffffffffff1673ffffffffffffffffffffffffffffffffffffffff16815260200190815260200160002060009054906101000a900460ff16905060006005866040516109fa9190611178565b908152602001604051809103902060009054906101000a900460ff169050818015610a225750805b15610a3857600133879450945094505050610a7a565b6000336040518060400160405280601481526020017f566572696669636174696f6e204661696c65642100000000000000000000000081525094509450945050505b9193909250565b60006040518060a001604052803373ffffffffffffffffffffffffffffffffffffffff168152602001838152602001848152602001428152602001600115158152509050600281908060018154018082558091505060019003906000526020600020906005020160009091909190915060008201518160000160006101000a81548173ffffffffffffffffffffffffffffffffffffffff021916908373ffffffffffffffffffffffffffffffffffffffff1602179055506020820151816001019080519060200190610b54929190610c2a565b506040820151816002019080519060200190610b71929190610c2a565b506060820151816003015560808201518160040160006101000a81548160ff02191690831515021790555050506001600584604051610bb09190611178565b908152602001604051809103902060006101000a81548160ff0219169083151502179055503373ffffffffffffffffffffffffffffffffffffffff167f90a6f3d5db7944799334229bbc34a1789d62f9527b88b72bcf41c69071e635908484604051610c1d92919061124e565b60405180910390a2505050565b828054610c3690611468565b90600052602060002090601f016020900481019282610c585760008555610c9f565b82601f10610c7157805160ff1916838001178555610c9f565b82800160010185558215610c9f579182015b82811115610c9e578251825591602001919060010190610c83565b5b509050610cac9190610cb0565b5090565b5b80821115610cc9576000816000905550600101610cb1565b5090565b6000610ce0610cdb846112ca565b6112a5565b905082815260208101848484011115610cf857600080fd5b610d03848285611426565b509392505050565b600081359050610d1a81611563565b92915050565b600082601f830112610d3157600080fd5b8135610d41848260208601610ccd565b91505092915050565b600060208284031215610d5c57600080fd5b6000610d6a84828501610d0b565b91505092915050565b600060208284031215610d8557600080fd5b600082013567ffffffffffffffff811115610d9f57600080fd5b610dab84828501610d20565b91505092915050565b60008060408385031215610dc757600080fd5b600083013567ffffffffffffffff811115610de157600080fd5b610ded85828601610d20565b925050602083013567ffffffffffffffff811115610e0a57600080fd5b610e1685828601610d20565b9150509250929050565b6000610e2c8383610e64565b60208301905092915050565b6000610e448383611097565b60808301905092915050565b6000610e5c83836110ec565b905092915050565b610e6d816113de565b82525050565b610e7c816113de565b82525050565b6000610e8d8261132b565b610e97818561137e565b9350610ea2836112fb565b8060005b83811015610ed3578151610eba8882610e20565b9750610ec583611357565b925050600181019050610ea6565b5085935050505092915050565b6000610eeb82611336565b610ef5818561138f565b9350610f008361130b565b8060005b83811015610f31578151610f188882610e38565b9750610f2383611364565b925050600181019050610f04565b5085935050505092915050565b6000610f4982611341565b610f5381856113a0565b935083602082028501610f658561131b565b8060005b85811015610fa15784840389528151610f828582610e50565b9450610f8d83611371565b925060208a01995050600181019050610f69565b50829750879550505050505092915050565b610fbc816113f0565b82525050565b610fcb816113f0565b82525050565b6000610fdc8261134c565b610fe681856113b1565b9350610ff6818560208601611435565b610fff81611529565b840191505092915050565b60006110158261134c565b61101f81856113c2565b935061102f818560208601611435565b61103881611529565b840191505092915050565b600061104e8261134c565b61105881856113d3565b9350611068818560208601611435565b80840191505092915050565b60006110816019836113c2565b915061108c8261153a565b602082019050919050565b6080820160008201516110ad6000850182610e64565b5060208201516110c06020850182610e64565b5060408201516110d36040850182611169565b5060608201516110e66060850182610fb3565b50505050565b600060a0830160008301516111046000860182610e64565b506020830151848203602086015261111c8282610fd1565b915050604083015184820360408601526111368282610fd1565b915050606083015161114b6060860182611169565b50608083015161115e6080860182610fb3565b508091505092915050565b6111728161141c565b82525050565b60006111848284611043565b915081905092915050565b600060208201905081810360008301526111a98184610e82565b905092915050565b600060208201905081810360008301526111cb8184610ee0565b905092915050565b600060208201905081810360008301526111ed8184610f3e565b905092915050565b600060208201905061120a6000830184610fc2565b92915050565b60006060820190506112256000830186610fc2565b6112326020830185610e73565b8181036040830152611244818461100a565b9050949350505050565b60006040820190508181036000830152611268818561100a565b9050818103602083015261127c818461100a565b90509392505050565b6000602082019050818103600083015261129e81611074565b9050919050565b60006112af6112c0565b90506112bb828261149a565b919050565b6000604051905090565b600067ffffffffffffffff8211156112e5576112e46114fa565b5b6112ee82611529565b9050602081019050919050565b6000819050602082019050919050565b6000819050602082019050919050565b6000819050602082019050919050565b600081519050919050565b600081519050919050565b600081519050919050565b600081519050919050565b6000602082019050919050565b6000602082019050919050565b6000602082019050919050565b600082825260208201905092915050565b600082825260208201905092915050565b600082825260208201905092915050565b600082825260208201905092915050565b600082825260208201905092915050565b600081905092915050565b60006113e9826113fc565b9050919050565b60008115159050919050565b600073ffffffffffffffffffffffffffffffffffffffff82169050919050565b6000819050919050565b82818337600083830152505050565b60005b83811015611453578082015181840152602081019050611438565b83811115611462576000848401525b50505050565b6000600282049050600182168061148057607f821691505b60208210811415611494576114936114cb565b5b50919050565b6114a382611529565b810181811067ffffffffffffffff821117156114c2576114c16114fa565b5b80604052505050565b7f4e487b7100000000000000000000000000000000000000000000000000000000600052602260045260246000fd5b7f4e487b7100000000000000000000000000000000000000000000000000000000600052604160045260246000fd5b6000601f19601f8301169050919050565b7f4163636573732064656e6965642c206e6f74206f776e65722100000000000000600082015250565b61156c816113de565b811461157757600080fd5b5056fea264697066735822122014fc2ebfa9fa0bb421d8749f08f252483ee91252c40f5c9718d1a9e8180659bf64736f6c63430008040033",
  "linkReferences": {},
  "deployedLinkReferences": {}
}