{
  "_format": "hh-sol-artifact-1",
  "contractName": "Fuota",
  "sourceName": "contracts/Fuota.sol",
  "abi": [
    {
      "inputs": [],
      "stateMutability": "nonpayable",
      "type": "constructor"
    },
    {
      "inputs": [
        {
          "internalType": "address",
          "name": "_key",
          "type": "address"
        }
      ],
      "name": "getSpecificRegisteredDevice",
      "outputs": [
        {
          "components": [
            {
              "internalType": "address",
              "name": "deviceIdentifier",
              "type": "address"
            },
            {
              "internalType": "address",
              "name": "deviceOwner",
              "type": "address"
            },
            {
              "internalType": "uint256",
              "name": "timestamp",
              "type": "uint256"
            },
            {
              "internalType": "bool",
              "name": "isRegistered",
              "type": "bool"
            }
          ],
          "internalType": "struct Fuota.DeviceStruct",
          "name": "",
          "type": "tuple"
        }
      ],
      "stateMutability": "view",
      "type": "function"
    },
    {
      "inputs": [
        {
          "internalType": "string",
          "name": "_key",
          "type": "string"
        }
      ],
      "name": "getSpecificRegisteredFirmware",
      "outputs": [
        {
          "components": [
            {
              "internalType": "address",
              "name": "publisher",
              "type": "address"
            },
            {
              "internalType": "string",
              "name": "version",
              "type": "string"
            },
            {
              "internalType": "string",
              "name": "cid",
              "type": "string"
            },
            {
              "internalType": "uint256",
              "name": "timestamp",
              "type": "uint256"
            },
            {
              "internalType": "bool",
              "name": "isRegistered",
              "type": "bool"
            }
          ],
          "internalType": "struct Fuota.FirmwareStruct",
          "name": "",
          "type": "tuple"
        }
      ],
      "stateMutability": "view",
      "type": "function"
    },
    {
      "inputs": [
        {
          "internalType": "address",
          "name": "_deviceIdentifier",
          "type": "address"
        }
      ],
      "name": "registerDevice",
      "outputs": [],
      "stateMutability": "nonpayable",
      "type": "function"
    },
    {
      "inputs": [
        {
          "internalType": "string",
          "name": "_cid",
          "type": "string"
        },
        {
          "internalType": "string",
          "name": "_version",
          "type": "string"
        }
      ],
      "name": "registerFirmware",
      "outputs": [],
      "stateMutability": "nonpayable",
      "type": "function"
    },
    {
      "inputs": [
        {
          "internalType": "string",
          "name": "_cid",
          "type": "string"
        },
        {
          "internalType": "address",
          "name": "_publisher",
          "type": "address"
        }
      ],
      "name": "verificationFromDevice",
      "outputs": [
        {
          "internalType": "bool",
          "name": "authorized",
          "type": "bool"
        }
      ],
      "stateMutability": "view",
      "type": "function"
    }
  ],
  "bytecode": "0x608060405234801561001057600080fd5b50336000806101000a81548173ffffffffffffffffffffffffffffffffffffffff021916908373ffffffffffffffffffffffffffffffffffffffff160217905550610e8c806100606000396000f3fe608060405234801561001057600080fd5b50600436106100575760003560e01c8063509e5d271461005c5780635fbdd83c1461008c5780636dc7b9a5146100bc57806395dda973146100d8578063df43313114610108575b600080fd5b610076600480360381019061007191906109bf565b610124565b6040516100839190610c0e565b60405180910390f35b6100a660048036038101906100a19190610955565b61022e565b6040516100b39190610c29565b60405180910390f35b6100d660048036038101906100d19190610955565b610358565b005b6100f260048036038101906100ed919061097e565b6104ab565b6040516100ff9190610c44565b60405180910390f35b610122600480360381019061011d9190610a13565b610682565b005b600080600260003373ffffffffffffffffffffffffffffffffffffffff1673ffffffffffffffffffffffffffffffffffffffff1681526020019081526020016000209050600060018560405161017a9190610bf7565b908152602001604051809103902090508160030160009054906101000a900460ff1680156101b657508060040160009054906101000a900460ff165b801561021157508373ffffffffffffffffffffffffffffffffffffffff168160000160009054906101000a900473ffffffffffffffffffffffffffffffffffffffff1673ffffffffffffffffffffffffffffffffffffffff16145b1561022157600192505050610228565b6000925050505b92915050565b610236610798565b600260008373ffffffffffffffffffffffffffffffffffffffff1673ffffffffffffffffffffffffffffffffffffffff1681526020019081526020016000206040518060800160405290816000820160009054906101000a900473ffffffffffffffffffffffffffffffffffffffff1673ffffffffffffffffffffffffffffffffffffffff1673ffffffffffffffffffffffffffffffffffffffff1681526020016001820160009054906101000a900473ffffffffffffffffffffffffffffffffffffffff1673ffffffffffffffffffffffffffffffffffffffff1673ffffffffffffffffffffffffffffffffffffffff168152602001600282015481526020016003820160009054906101000a900460ff1615151515815250509050919050565b600060405180608001604052808373ffffffffffffffffffffffffffffffffffffffff1681526020013373ffffffffffffffffffffffffffffffffffffffff16815260200142815260200160011515815250905080600260008473ffffffffffffffffffffffffffffffffffffffff1673ffffffffffffffffffffffffffffffffffffffff16815260200190815260200160002060008201518160000160006101000a81548173ffffffffffffffffffffffffffffffffffffffff021916908373ffffffffffffffffffffffffffffffffffffffff16021790555060208201518160010160006101000a81548173ffffffffffffffffffffffffffffffffffffffff021916908373ffffffffffffffffffffffffffffffffffffffff1602179055506040820151816002015560608201518160030160006101000a81548160ff0219169083151502179055509050505050565b6104b36107ee565b6001826040516104c39190610bf7565b90815260200160405180910390206040518060a00160405290816000820160009054906101000a900473ffffffffffffffffffffffffffffffffffffffff1673ffffffffffffffffffffffffffffffffffffffff1673ffffffffffffffffffffffffffffffffffffffff16815260200160018201805461054290610d6d565b80601f016020809104026020016040519081016040528092919081815260200182805461056e90610d6d565b80156105bb5780601f10610590576101008083540402835291602001916105bb565b820191906000526020600020905b81548152906001019060200180831161059e57829003601f168201915b505050505081526020016002820180546105d490610d6d565b80601f016020809104026020016040519081016040528092919081815260200182805461060090610d6d565b801561064d5780601f106106225761010080835404028352916020019161064d565b820191906000526020600020905b81548152906001019060200180831161063057829003601f168201915b50505050508152602001600382015481526020016004820160009054906101000a900460ff1615151515815250509050919050565b60006040518060a001604052803373ffffffffffffffffffffffffffffffffffffffff168152602001838152602001848152602001428152602001600115158152509050806001846040516106d79190610bf7565b908152602001604051809103902060008201518160000160006101000a81548173ffffffffffffffffffffffffffffffffffffffff021916908373ffffffffffffffffffffffffffffffffffffffff1602179055506020820151816001019080519060200190610748929190610835565b506040820151816002019080519060200190610765929190610835565b506060820151816003015560808201518160040160006101000a81548160ff021916908315150217905550905050505050565b6040518060800160405280600073ffffffffffffffffffffffffffffffffffffffff168152602001600073ffffffffffffffffffffffffffffffffffffffff168152602001600081526020016000151581525090565b6040518060a00160405280600073ffffffffffffffffffffffffffffffffffffffff1681526020016060815260200160608152602001600081526020016000151581525090565b82805461084190610d6d565b90600052602060002090601f01602090048101928261086357600085556108aa565b82601f1061087c57805160ff19168380011785556108aa565b828001600101855582156108aa579182015b828111156108a957825182559160200191906001019061088e565b5b5090506108b791906108bb565b5090565b5b808211156108d45760008160009055506001016108bc565b5090565b60006108eb6108e684610c8b565b610c66565b90508281526020810184848401111561090357600080fd5b61090e848285610d2b565b509392505050565b60008135905061092581610e3f565b92915050565b600082601f83011261093c57600080fd5b813561094c8482602086016108d8565b91505092915050565b60006020828403121561096757600080fd5b600061097584828501610916565b91505092915050565b60006020828403121561099057600080fd5b600082013567ffffffffffffffff8111156109aa57600080fd5b6109b68482850161092b565b91505092915050565b600080604083850312156109d257600080fd5b600083013567ffffffffffffffff8111156109ec57600080fd5b6109f88582860161092b565b9250506020610a0985828601610916565b9150509250929050565b60008060408385031215610a2657600080fd5b600083013567ffffffffffffffff811115610a4057600080fd5b610a4c8582860161092b565b925050602083013567ffffffffffffffff811115610a6957600080fd5b610a758582860161092b565b9150509250929050565b610a8881610ce3565b82525050565b610a9781610cf5565b82525050565b610aa681610cf5565b82525050565b6000610ab782610cbc565b610ac18185610cc7565b9350610ad1818560208601610d3a565b610ada81610e2e565b840191505092915050565b6000610af082610cbc565b610afa8185610cd8565b9350610b0a818560208601610d3a565b80840191505092915050565b608082016000820151610b2c6000850182610a7f565b506020820151610b3f6020850182610a7f565b506040820151610b526040850182610be8565b506060820151610b656060850182610a8e565b50505050565b600060a083016000830151610b836000860182610a7f565b5060208301518482036020860152610b9b8282610aac565b91505060408301518482036040860152610bb58282610aac565b9150506060830151610bca6060860182610be8565b506080830151610bdd6080860182610a8e565b508091505092915050565b610bf181610d21565b82525050565b6000610c038284610ae5565b915081905092915050565b6000602082019050610c236000830184610a9d565b92915050565b6000608082019050610c3e6000830184610b16565b92915050565b60006020820190508181036000830152610c5e8184610b6b565b905092915050565b6000610c70610c81565b9050610c7c8282610d9f565b919050565b6000604051905090565b600067ffffffffffffffff821115610ca657610ca5610dff565b5b610caf82610e2e565b9050602081019050919050565b600081519050919050565b600082825260208201905092915050565b600081905092915050565b6000610cee82610d01565b9050919050565b60008115159050919050565b600073ffffffffffffffffffffffffffffffffffffffff82169050919050565b6000819050919050565b82818337600083830152505050565b60005b83811015610d58578082015181840152602081019050610d3d565b83811115610d67576000848401525b50505050565b60006002820490506001821680610d8557607f821691505b60208210811415610d9957610d98610dd0565b5b50919050565b610da882610e2e565b810181811067ffffffffffffffff82111715610dc757610dc6610dff565b5b80604052505050565b7f4e487b7100000000000000000000000000000000000000000000000000000000600052602260045260246000fd5b7f4e487b7100000000000000000000000000000000000000000000000000000000600052604160045260246000fd5b6000601f19601f8301169050919050565b610e4881610ce3565b8114610e5357600080fd5b5056fea2646970667358221220c850744ba48dd182c94c0f9a6540df656e471ebce33d5235fd423c145f46f03864736f6c63430008040033",
  "linkReferences": {},
  "deployedLinkReferences": {}
}