{
  "_format": "hh-sol-artifact-1",
  "contractName": "Fuota",
  "sourceName": "contracts/Fuota.sol",
  "abi": [
    {
      "inputs": [],
      "stateMutability": "nonpayable",
      "type": "constructor"
    },
    {
      "anonymous": false,
      "inputs": [
        {
          "indexed": true,
          "internalType": "address",
          "name": "from",
          "type": "address"
        },
        {
          "indexed": false,
          "internalType": "string",
          "name": "cid",
          "type": "string"
        },
        {
          "indexed": false,
          "internalType": "string",
          "name": "version",
          "type": "string"
        }
      ],
      "name": "firmwareLog",
      "type": "event"
    },
    {
      "inputs": [
        {
          "internalType": "address",
          "name": "_newAdmin",
          "type": "address"
        }
      ],
      "name": "addAdmin",
      "outputs": [],
      "stateMutability": "nonpayable",
      "type": "function"
    },
    {
      "inputs": [],
      "name": "getAllAdmin",
      "outputs": [
        {
          "internalType": "address[]",
          "name": "",
          "type": "address[]"
        }
      ],
      "stateMutability": "view",
      "type": "function"
    },
    {
      "inputs": [],
      "name": "getAllRegisteredDevice",
      "outputs": [
        {
          "components": [
            {
              "internalType": "address",
              "name": "deviceIdentifier",
              "type": "address"
            },
            {
              "internalType": "address",
              "name": "deviceOwner",
              "type": "address"
            },
            {
              "internalType": "uint256",
              "name": "timestamp",
              "type": "uint256"
            },
            {
              "internalType": "bool",
              "name": "isRegistered",
              "type": "bool"
            }
          ],
          "internalType": "struct Fuota.DeviceStruct[]",
          "name": "",
          "type": "tuple[]"
        }
      ],
      "stateMutability": "view",
      "type": "function"
    },
    {
      "inputs": [],
      "name": "getAllRegisteredFirmware",
      "outputs": [
        {
          "components": [
            {
              "internalType": "address",
              "name": "publisher",
              "type": "address"
            },
            {
              "internalType": "string",
              "name": "version",
              "type": "string"
            },
            {
              "internalType": "string",
              "name": "cid",
              "type": "string"
            },
            {
              "internalType": "uint256",
              "name": "timestamp",
              "type": "uint256"
            },
            {
              "internalType": "bool",
              "name": "isRegistered",
              "type": "bool"
            }
          ],
          "internalType": "struct Fuota.FirmwareStruct[]",
          "name": "",
          "type": "tuple[]"
        }
      ],
      "stateMutability": "view",
      "type": "function"
    },
    {
      "inputs": [
        {
          "internalType": "address",
          "name": "_key",
          "type": "address"
        }
      ],
      "name": "getSpecificRegisteredDevice",
      "outputs": [
        {
          "internalType": "bool",
          "name": "",
          "type": "bool"
        }
      ],
      "stateMutability": "view",
      "type": "function"
    },
    {
      "inputs": [
        {
          "internalType": "string",
          "name": "_key",
          "type": "string"
        }
      ],
      "name": "getSpecificRegisteredFirmware",
      "outputs": [
        {
          "internalType": "bool",
          "name": "",
          "type": "bool"
        }
      ],
      "stateMutability": "view",
      "type": "function"
    },
    {
      "inputs": [
        {
          "internalType": "address",
          "name": "_adminAddr",
          "type": "address"
        }
      ],
      "name": "isAdmin",
      "outputs": [
        {
          "internalType": "bool",
          "name": "",
          "type": "bool"
        }
      ],
      "stateMutability": "view",
      "type": "function"
    },
    {
      "inputs": [
        {
          "internalType": "address",
          "name": "_deviceIdentifier",
          "type": "address"
        }
      ],
      "name": "registerDevice",
      "outputs": [],
      "stateMutability": "nonpayable",
      "type": "function"
    },
    {
      "inputs": [
        {
          "internalType": "string",
          "name": "_cid",
          "type": "string"
        },
        {
          "internalType": "string",
          "name": "_version",
          "type": "string"
        }
      ],
      "name": "registerFirmware",
      "outputs": [],
      "stateMutability": "nonpayable",
      "type": "function"
    },
    {
      "inputs": [],
      "name": "requestUpdate",
      "outputs": [
        {
          "internalType": "address",
          "name": "",
          "type": "address"
        },
        {
          "internalType": "string",
          "name": "",
          "type": "string"
        },
        {
          "internalType": "string",
          "name": "",
          "type": "string"
        }
      ],
      "stateMutability": "view",
      "type": "function"
    },
    {
      "inputs": [
        {
          "internalType": "string",
          "name": "_cid",
          "type": "string"
        }
      ],
      "name": "verificationFromDevice",
      "outputs": [
        {
          "internalType": "bool",
          "name": "",
          "type": "bool"
        },
        {
          "internalType": "address",
          "name": "",
          "type": "address"
        },
        {
          "internalType": "string",
          "name": "",
          "type": "string"
        }
      ],
      "stateMutability": "view",
      "type": "function"
    }
  ],
  "bytecode": "0x608060405234801561001057600080fd5b50336000806101000a81548173ffffffffffffffffffffffffffffffffffffffff021916908373ffffffffffffffffffffffffffffffffffffffff160217905550611836806100606000396000f3fe608060405234801561001057600080fd5b50600436106100a95760003560e01c806395dda9731161007157806395dda973146101645780639b80e434146101945780639c312cfd146101b2578063bad11e36146101d2578063de523875146101f0578063df43313114610222576100a9565b806324d7806c146100ae57806331a36424146100de5780635fbdd83c146100fc5780636dc7b9a51461012c5780637048027514610148575b600080fd5b6100c860048036038101906100c39190610f28565b61023e565b6040516100d59190611418565b60405180910390f35b6100e6610294565b6040516100f391906113b2565b60405180910390f35b61011660048036038101906101119190610f28565b610322565b6040516101239190611418565b60405180910390f35b61014660048036038101906101419190610f28565b610378565b005b610162600480360381019061015d9190610f28565b61050e565b005b61017e60048036038101906101799190610f51565b61065a565b60405161018b9190611418565b60405180910390f35b61019c61068f565b6040516101a991906113d4565b60405180910390f35b6101ba6107bf565b6040516101c99392919061136d565b60405180910390f35b6101da610972565b6040516101e791906113f6565b60405180910390f35b61020a60048036038101906102059190610f51565b610b70565b60405161021993929190611433565b60405180910390f35b61023c60048036038101906102379190610f92565b610c5f565b005b6000600460008373ffffffffffffffffffffffffffffffffffffffff1673ffffffffffffffffffffffffffffffffffffffff16815260200190815260200160002060009054906101000a900460ff169050919050565b6060600180548060200260200160405190810160405280929190818152602001828054801561031857602002820191906000526020600020905b8160009054906101000a900473ffffffffffffffffffffffffffffffffffffffff1673ffffffffffffffffffffffffffffffffffffffff16815260200190600101908083116102ce575b5050505050905090565b6000600660008373ffffffffffffffffffffffffffffffffffffffff1673ffffffffffffffffffffffffffffffffffffffff16815260200190815260200160002060009054906101000a900460ff169050919050565b600060405180608001604052808373ffffffffffffffffffffffffffffffffffffffff1681526020013373ffffffffffffffffffffffffffffffffffffffff168152602001428152602001600115158152509050600381908060018154018082558091505060019003906000526020600020906004020160009091909190915060008201518160000160006101000a81548173ffffffffffffffffffffffffffffffffffffffff021916908373ffffffffffffffffffffffffffffffffffffffff16021790555060208201518160010160006101000a81548173ffffffffffffffffffffffffffffffffffffffff021916908373ffffffffffffffffffffffffffffffffffffffff1602179055506040820151816002015560608201518160030160006101000a81548160ff02191690831515021790555050506001600660008473ffffffffffffffffffffffffffffffffffffffff1673ffffffffffffffffffffffffffffffffffffffff16815260200190815260200160002060006101000a81548160ff0219169083151502179055505050565b60008054906101000a900473ffffffffffffffffffffffffffffffffffffffff1673ffffffffffffffffffffffffffffffffffffffff163373ffffffffffffffffffffffffffffffffffffffff161461059c576040517f08c379a0000000000000000000000000000000000000000000000000000000008152600401610593906114a8565b60405180910390fd5b6001819080600181540180825580915050600190039060005260206000200160009091909190916101000a81548173ffffffffffffffffffffffffffffffffffffffff021916908373ffffffffffffffffffffffffffffffffffffffff1602179055506001600460008373ffffffffffffffffffffffffffffffffffffffff1673ffffffffffffffffffffffffffffffffffffffff16815260200190815260200160002060006101000a81548160ff02191690831515021790555050565b600060058260405161066c9190611356565b908152602001604051809103902060009054906101000a900460ff169050919050565b60606003805480602002602001604051908101604052809291908181526020016000905b828210156107b657838290600052602060002090600402016040518060800160405290816000820160009054906101000a900473ffffffffffffffffffffffffffffffffffffffff1673ffffffffffffffffffffffffffffffffffffffff1673ffffffffffffffffffffffffffffffffffffffff1681526020016001820160009054906101000a900473ffffffffffffffffffffffffffffffffffffffff1673ffffffffffffffffffffffffffffffffffffffff1673ffffffffffffffffffffffffffffffffffffffff168152602001600282015481526020016003820160009054906101000a900460ff161515151581525050815260200190600101906106b3565b50505050905090565b60006060806000600260016002805490506107da9190611601565b81548110610811577f4e487b7100000000000000000000000000000000000000000000000000000000600052603260045260246000fd5b906000526020600020906005020190508060000160009054906101000a900473ffffffffffffffffffffffffffffffffffffffff16816001018260020181805461085a906116bf565b80601f0160208091040260200160405190810160405280929190818152602001828054610886906116bf565b80156108d35780601f106108a8576101008083540402835291602001916108d3565b820191906000526020600020905b8154815290600101906020018083116108b657829003601f168201915b505050505091508080546108e6906116bf565b80601f0160208091040260200160405190810160405280929190818152602001828054610912906116bf565b801561095f5780601f106109345761010080835404028352916020019161095f565b820191906000526020600020905b81548152906001019060200180831161094257829003601f168201915b5050505050905093509350935050909192565b60606002805480602002602001604051908101604052809291908181526020016000905b82821015610b6757838290600052602060002090600502016040518060a00160405290816000820160009054906101000a900473ffffffffffffffffffffffffffffffffffffffff1673ffffffffffffffffffffffffffffffffffffffff1673ffffffffffffffffffffffffffffffffffffffff168152602001600182018054610a1f906116bf565b80601f0160208091040260200160405190810160405280929190818152602001828054610a4b906116bf565b8015610a985780601f10610a6d57610100808354040283529160200191610a98565b820191906000526020600020905b815481529060010190602001808311610a7b57829003601f168201915b50505050508152602001600282018054610ab1906116bf565b80601f0160208091040260200160405190810160405280929190818152602001828054610add906116bf565b8015610b2a5780601f10610aff57610100808354040283529160200191610b2a565b820191906000526020600020905b815481529060010190602001808311610b0d57829003601f168201915b50505050508152602001600382015481526020016004820160009054906101000a900460ff16151515158152505081526020019060010190610996565b50505050905090565b60008060606000600660003373ffffffffffffffffffffffffffffffffffffffff1673ffffffffffffffffffffffffffffffffffffffff16815260200190815260200160002060009054906101000a900460ff1690506000600586604051610bd89190611356565b908152602001604051809103902060009054906101000a900460ff169050818015610c005750805b15610c1657600133879450945094505050610c58565b6000336040518060400160405280601481526020017f566572696669636174696f6e204661696c65642100000000000000000000000081525094509450945050505b9193909250565b60006040518060a001604052803373ffffffffffffffffffffffffffffffffffffffff168152602001838152602001848152602001428152602001600115158152509050600281908060018154018082558091505060019003906000526020600020906005020160009091909190915060008201518160000160006101000a81548173ffffffffffffffffffffffffffffffffffffffff021916908373ffffffffffffffffffffffffffffffffffffffff1602179055506020820151816001019080519060200190610d32929190610e08565b506040820151816002019080519060200190610d4f929190610e08565b506060820151816003015560808201518160040160006101000a81548160ff02191690831515021790555050506001600584604051610d8e9190611356565b908152602001604051809103902060006101000a81548160ff0219169083151502179055503373ffffffffffffffffffffffffffffffffffffffff167f90a6f3d5db7944799334229bbc34a1789d62f9527b88b72bcf41c69071e635908484604051610dfb929190611471565b60405180910390a2505050565b828054610e14906116bf565b90600052602060002090601f016020900481019282610e365760008555610e7d565b82601f10610e4f57805160ff1916838001178555610e7d565b82800160010185558215610e7d579182015b82811115610e7c578251825591602001919060010190610e61565b5b509050610e8a9190610e8e565b5090565b5b80821115610ea7576000816000905550600101610e8f565b5090565b6000610ebe610eb9846114ed565b6114c8565b905082815260208101848484011115610ed657600080fd5b610ee184828561167d565b509392505050565b600081359050610ef8816117e9565b92915050565b600082601f830112610f0f57600080fd5b8135610f1f848260208601610eab565b91505092915050565b600060208284031215610f3a57600080fd5b6000610f4884828501610ee9565b91505092915050565b600060208284031215610f6357600080fd5b600082013567ffffffffffffffff811115610f7d57600080fd5b610f8984828501610efe565b91505092915050565b60008060408385031215610fa557600080fd5b600083013567ffffffffffffffff811115610fbf57600080fd5b610fcb85828601610efe565b925050602083013567ffffffffffffffff811115610fe857600080fd5b610ff485828601610efe565b9150509250929050565b600061100a8383611042565b60208301905092915050565b60006110228383611275565b60808301905092915050565b600061103a83836112ca565b905092915050565b61104b81611635565b82525050565b61105a81611635565b82525050565b600061106b8261154e565b61107581856115a1565b93506110808361151e565b8060005b838110156110b15781516110988882610ffe565b97506110a38361157a565b925050600181019050611084565b5085935050505092915050565b60006110c982611559565b6110d381856115b2565b93506110de8361152e565b8060005b8381101561110f5781516110f68882611016565b975061110183611587565b9250506001810190506110e2565b5085935050505092915050565b600061112782611564565b61113181856115c3565b9350836020820285016111438561153e565b8060005b8581101561117f5784840389528151611160858261102e565b945061116b83611594565b925060208a01995050600181019050611147565b50829750879550505050505092915050565b61119a81611647565b82525050565b6111a981611647565b82525050565b60006111ba8261156f565b6111c481856115d4565b93506111d481856020860161168c565b6111dd816117af565b840191505092915050565b60006111f38261156f565b6111fd81856115e5565b935061120d81856020860161168c565b611216816117af565b840191505092915050565b600061122c8261156f565b61123681856115f6565b935061124681856020860161168c565b80840191505092915050565b600061125f6019836115e5565b915061126a826117c0565b602082019050919050565b60808201600082015161128b6000850182611042565b50602082015161129e6020850182611042565b5060408201516112b16040850182611347565b5060608201516112c46060850182611191565b50505050565b600060a0830160008301516112e26000860182611042565b50602083015184820360208601526112fa82826111af565b9150506040830151848203604086015261131482826111af565b91505060608301516113296060860182611347565b50608083015161133c6080860182611191565b508091505092915050565b61135081611673565b82525050565b60006113628284611221565b915081905092915050565b60006060820190506113826000830186611051565b818103602083015261139481856111e8565b905081810360408301526113a881846111e8565b9050949350505050565b600060208201905081810360008301526113cc8184611060565b905092915050565b600060208201905081810360008301526113ee81846110be565b905092915050565b60006020820190508181036000830152611410818461111c565b905092915050565b600060208201905061142d60008301846111a0565b92915050565b600060608201905061144860008301866111a0565b6114556020830185611051565b818103604083015261146781846111e8565b9050949350505050565b6000604082019050818103600083015261148b81856111e8565b9050818103602083015261149f81846111e8565b90509392505050565b600060208201905081810360008301526114c181611252565b9050919050565b60006114d26114e3565b90506114de82826116f1565b919050565b6000604051905090565b600067ffffffffffffffff82111561150857611507611780565b5b611511826117af565b9050602081019050919050565b6000819050602082019050919050565b6000819050602082019050919050565b6000819050602082019050919050565b600081519050919050565b600081519050919050565b600081519050919050565b600081519050919050565b6000602082019050919050565b6000602082019050919050565b6000602082019050919050565b600082825260208201905092915050565b600082825260208201905092915050565b600082825260208201905092915050565b600082825260208201905092915050565b600082825260208201905092915050565b600081905092915050565b600061160c82611673565b915061161783611673565b92508282101561162a57611629611722565b5b828203905092915050565b600061164082611653565b9050919050565b60008115159050919050565b600073ffffffffffffffffffffffffffffffffffffffff82169050919050565b6000819050919050565b82818337600083830152505050565b60005b838110156116aa57808201518184015260208101905061168f565b838111156116b9576000848401525b50505050565b600060028204905060018216806116d757607f821691505b602082108114156116eb576116ea611751565b5b50919050565b6116fa826117af565b810181811067ffffffffffffffff8211171561171957611718611780565b5b80604052505050565b7f4e487b7100000000000000000000000000000000000000000000000000000000600052601160045260246000fd5b7f4e487b7100000000000000000000000000000000000000000000000000000000600052602260045260246000fd5b7f4e487b7100000000000000000000000000000000000000000000000000000000600052604160045260246000fd5b6000601f19601f8301169050919050565b7f4163636573732064656e6965642c206e6f74206f776e65722100000000000000600082015250565b6117f281611635565b81146117fd57600080fd5b5056fea2646970667358221220632972f28f23fd1b2de2751b502935cc8ae29394123b5b3549bd5b485cf31e3d64736f6c63430008040033",
  "linkReferences": {},
  "deployedLinkReferences": {}
}